:02000002B0004C
:1040000000400B007E520B00000006000C00050271
:084010000401B41400000000DB
:04401800804F0B00CA
:10401C00034613F8012B002AFBD1181A01387047FC
:10402C0009480A49884208B505D0094A824202D09B
:10403C00121A00F0F5FE0748074A0021121A00F088
:10404C00FDFE014808BD00BF40E60320E4510B0013
:10405C00ACE60320ACE60320F0E7032070B5074E76
:10406C00074C00F037FBA41BA4080025AC4200D180
:10407C0070BD56F8043B98470135F7E79C510B008F
:10408C00C0510B0000F013B808B500F011F8BDE8F2
:10409C00084000F0D7BA00F0CBB900F0D1B90078E5
:1040AC00B0FA80F0400970470123037070477047E5
:1040BC0008B50121052000F001FE4FF47A7000F0E4
:1040CC0095FA0121052000F00AFE4FF47A7000F0F9
:1040DC008DFABDE808400021052000F000BE00006C
:1040EC0010B5074B074A9A600024C3E9004403202B
:1040FC0000F00AF921460120BDE8104000F014B987
:10410C00ACE603200000FFFF08B5024B1B689B6860
:10411C00019308BD6802030008B5024B1B68DB68FD
:10412C00019308BD6802030008B5024B1B689B682D
:10413C00019308BD2C02030008B5024B1B68DB6819
:10414C00019308BD2C02030008B5024B1B681B69C8
:10415C00019308BD2C02030008B5024B1B685B6879
:10416C00019308BD1802030008B5024B1B685B697C
:10417C00019308BD1802030008B5024B1B685B6C69
:10418C00019308BD4802030008B5024B1B685B692C
:10419C00019308BD6402030008B5024B1B68DB6881
:1041AC00019308BD3C02030008B5024B1B681B6958
:1041BC00019308BD3C02030008B5024B1B685B6908
:1041CC00019308BD3C02030008B5024B1B689B69B8
:1041DC00019308BD3C02030008B5024B1B68DB6968
:1041EC00019308BD3C02030008B5024B1B681B6A17
:1041FC00019308BD3C02030008B5024B1B689B6A87
:10420C00019308BD3C02030008B5024B1B681B6CF4
:10421C00019308BD3C02030008B5024B1B681B6AE6
:10422C00019308BD2802030008B5024B1B685B6AAA
:10423C00019308BD2802030008B5024B1B689B6A5A
:10424C00019308BD2802030008B5024B1B68DB6A0A
:10425C00019308BD2802030008B5024B1B681B6BB9
:10426C00019308BD2802030008B5024B1B685B6B69
:10427C00019308BD2802030008B5024B1B681B6C98
:10428C00019308BD2802030008B5024B1B68DB69CB
:10429C00019308BD3002030008B5024B1B681B6A72
:1042AC00019308BD3002030008B5024B1B681B6864
:1042BC00019308BD4C02030008B5024B1B681B6937
:1042CC00019308BD4C02030008B5024B1B685B69E7
:1042DC00019308BD4C02030008B5024B1B689B6997
:1042EC00019308BD4C02030008B5024B1B68DB6947
:1042FC00019308BD4C02030008B5024B1B681B6AF6
:10430C00019308BD4C02030008B5024B1B685B68A7
:10431C00019308BD2002030008B5024B1B685B69C2
:10432C00019308BD2002030008B5024B1B68DB6A31
:10433C00019308BD2002030008B5034B1B68D3F89A
:10434C008830019308BD00002002030008B5034B20
:10435C001B68D3F89430019308BD000020020300C1
:10436C0008B5024B1B685B68019308BD4002030053
:10437C0008B5024B1B689B68019308BD4002030003
:10438C0008B5024B1B68DB68019308BD40020300B3
:10439C0008B5024B1B681B69019308BD4002030062
:1043AC0008B5024B1B685B69019308BD4002030012
:1043BC0008B5024B1B689B69019308BD40020300C2
:1043CC0008B5024B1B68DB69019308BD4002030072
:1043DC0008B5024B1B681B6A019308BD4002030021
:1043EC0008B5024B1B681B6B019308BD4002030010
:1043FC0008B5024B1B685B6B019308BD40020300C0
:10440C0008B5024B1B681B6C019308BD40020300EE
:10441C0008B5024B1B685B6C019308BD400203009E
:10442C0008B5024B1B68DB6B019308BD440203000B
:10443C0008B5024B1B681B68019308BD1C020300E6
:10444C0008B5024B1B685B68019308BD1C02030096
:10445C0008B5024B1B681B6C019308BD1C020300C2
:10446C0008B5024B1B685B6C019308BD1C02030072
:10447C00002240681146FFF7ABBF0022406811468E
:10448C00FFF7B6BF40680022FFF7AABF40680022C2
:10449C0081F00101FFF794BF002340681A461946CA
:1044AC00FFF786BF002340681A461946FFF778BF0E
:1044BC00002240681146FFF76BBF0022406811468E
:1044CC00FFF756BF406800220221FFF759BF0023B7
:1044DC0040681A46FFF744BF024B03225A60024A57
:1044EC001A607047B8E603209C4F0B0010B50446C9
:1044FC0008462170FFF7C8FE00236360204610BDFC
:10450C00054B02221A60054B054A9A600020C3E94C
:10451C000000FFF7F9BE00BFCCE60320C0E6032085
:10452C000000FFFF024800230360FFF725BE00BF19
:10453C00D0E60320F8B506460D468F180024BD4280
:10454C000CD0336815F8011B9B6830469847031E46
:10455C0001DB1C44F3E7002C08BF1C462046F8BDC9
:10456C0013B50446084659B10191FFF751FD236874
:10457C000199DB680246204602B0BDE8104018479E
:10458C0002B010BD03689B68184730B58BB0002390
:10459C00012A8DF8243098BF0A2209AC0D46B1FBD4
:1045AC00F2F101FB125303F0FF03092B94BF3033DC
:1045BC003733DBB2AA4204F8013DEFD92146FFF7AD
:1045CC00CFFF0BB030BD0000014B024A1A607047A0
:1045DC00D4E60320D04F0B00024B1A68024B1A6032
:1045EC00704700BF40E60320D8E603200021FFF708
:1045FC0093BE0000014B00229A607047DCE603205A
:10460C00014B1860704700BF44E6032008B50B4B04
:10461C0043B100F063F903681B699847002801DD7A
:10462C00AFF30080064B43B100F08EFB03681B69AF
:10463C009847002801DDAFF3008008BD00000000A2
:10464C000000000008B5FFF7E1FFFFF78DFD014BFF
:10465C00186008BD40E703200548064A064908B51E
:10466C00121A00F0DDFB054B054A1A6008BD00BFAD
:10467C0000F4032004F4032050520B0000F4032038
:10468C001E1C279A07B5002300931A466FF077017A
:10469C00FFF75CFE03B05DF804FB000007B5438830
:1046AC000A2B08D0502B0BD1094B1B684BB103B014
:1046BC005DF804EB1847FFF7E5FF03B05DF804FB6A
:1046CC00002300931A466FF07701FFF73FFEF4E7E3
:1046DC00F0E6032010B512480021FFF7C1FE114B84
:1046EC001A68114B9A42114B0CBF012200221A700E
:1046FC0001D0FFF7B1FFFFF72FFD044600F0A6FB3A
:10470C000B4B13B12046AFF3008000210848FFF794
:10471C0087FEBDE8104007480021FFF70DBE00BF23
:10472C000D460B0000F403201E1C279AECE6032018
:10473C0000000000A9460B00704710B51821044674
:10474C00FFF7ABFC204610BDF0B5037D062B8DB0FA
:10475C000E4600F104074FF0000412D000F10805DA
:10476C0015F8011D0A223046FFF70FFFAF42044433
:10477C0019D0002CF4D02E213046FFF703FF04444F
:10478C00EEE72F236A4639460A208DF80040FFF7E2
:10479C00FBFC6846FFF73CFC33680246DB68694665
:1047AC0030469847044620460DB0F0BD10B5054B79
:1047BC000446112240F8043B002100F03FFB204648
:1047CC0010BD00BFF84F0B000346074A10B543F865
:1047DC00042B01F1100251F8044B43F8044B9142A5
:1047EC00F9D10A781A7010BDF84F0B0010B59DF86E
:1047FC00084044EA032343EA024242EA01610423EB
:10480C004160037510BD000007B5064B0360CB7803
:10481C0000938B784A780978FFF7E8FF03B05DF8CE
:10482C0004FB00BFF84F0B00417470477047704792
:10483C0008B50021007CFFF74FFD40EAE07008BD91
:10484C0008B50121007CFFF747FD40EAE07008BD88
:10485C0008B5007CFFF738FD20EAE07008BD08B50C
:10486C00007CFFF729FD20EAE07008BD13B5044673
:10487C00007C0191FFF728FD0028019901DC607C88
:10488C0020B1207CFFF730FD20EAE07002B010BDB3
:10489C00007CFFF731BD10B514210446FFF7FDFB7A
:1048AC00204610BD10B54FF47A730446084600211B
:1048BC00C4E90113044B2360012320746374114673
:1048CC00FFF7F2FC204610BD0C500B0010B5142263
:1048DC000446002100F0B2FA204610BD10B50F4C72
:1048EC0088B003A8FFF7F2FF2178BFF35B8F11F0BC
:1048FC0001010FD120460191FFF7D1FB019948B17D
:10490C0003AA0748FFF7CEFF2046FFF7CDFB05486B
:10491C0000F080FA024808B010BD00BFF4E6032096
:10492C00F8E6032039480B0070474174704708B50E
:10493C00007CFFF761FC20EAE07008BD08B5007C44
:10494C00FFF732FC20EAE07008BD08B5007CFFF7E9
:10495C003BFC40EAE07008BD08B5007CFFF72CFC7E
:10496C0040EAE07008BD007CFFF736BC37B5457CEB
:10497C0004462DB1207C03B0BDE83040FFF70CBCE1
:10498C00007C0191FFF738FC00280199F2DC2846E5
:10499C0003B030BD10B514210446FFF77EFB204652
:1049AC0010BD000010B54FF47A730446084611464A
:1049BC000022C4E90123044B236001232074637497
:1049CC00FFF722FC204610BD3C500B007047F8B599
:1049DC00064615460C468F18BC4206D0336814F8B0
:1049EC00011B9B6830469847F6E72846F8BD007CCB
:1049FC000022FFF711BC007C0021FFF715BC007CE6
:104A0C000021FFF719BC007C0021FFF71DBC007CC6
:104A1C000021FFF721BC10B514210446FFF73DFB24
:104A2C00204610BD38B5044615464FF47A73002263
:104A3C00C4E90123094B2174084623602946FFF77A
:104A4C001BFCBF3008D16B69DB0705D56868FFF725
:104A5C00F7FCE868FFF7F4FC204638BD6C500B00FF
:104A6C00002240681146FFF793BC002240681146B3
:104A7C00FFF7AEBC002240681146FFF7B9BC406896
:104A8C000022FFF7ADBC4068002281F00101FFF766
:104A9C0097BC002340681A461946FFF789BC0023CF
:104AAC0040681A461946FFF77BBC00224068114645
:104ABC00FFF75EBC406800220221FFF761BC0023B7
:104ACC0040681A46FFF74CBC024B04225A60024A5B
:104ADC001A6070470CE7032094500B0000234068C9
:104AEC001A46FFF73DBC406800220221FFF748BC84
:104AFC00002240681146FFF73BBC0022406811467B
:104B0C00FFF746BC002340681A461946FFF748BC1D
:104B1C00002340681A461946FFF74ABC406800213A
:104B2C00FFF76EBC40680021FFF772BC40680022A2
:104B3C0081F00101FFF744BC40680022FFF750BC34
:104B4C00002240681146FFF753BC00224068114612
:104B5C00FFF73EBC2DE9F04395B014460D460746D1
:104B6C00FFF724FE00211C220DA8009100F066F92D
:104B7C0040230C9320466B460CAA0021FFF7CCFA7D
:104B8C00044600284BD1024601216868FFF700FC5F
:104B9C000221804622466868FFF7FAFB009E814698
:104BAC002146002E3BD0002939D17368022B03D04B
:104BBC000A2B11D0F669F4E7B8F1000FFAD071693D
:104BCC0006A8043107ADFFF71FFE0FCD3C1D0FC427
:104BDC002B6823704146EDE7B9F1000FEAD07469F8
:104BEC00102201A800F02AF906238DF8143001AD2B
:104BFC0004F108031834186859682A4603C20833AC
:104C0C00A3421546F7D101A906A807ADFFF7DCFDB5
:104C1C000FCD3C1D0FC42B6823704946CAE7009882
:104C2C00FFF772FA384615B0BDE8F083024B034A21
:104C3C001A6000225A60704714E70320D0500B0012
:104C4C00232813B502D9002002B010BDA0F10B032C
:104C5C00022B1AD8174C2178BFF35B8F11F001018E
:104C6C000BD120460191FFF71AFA019928B112488D
:104C7C00FFF73CFC2046FFF717FA0F4B1878FFF7AD
:104C8C000BFB0028DFD10120DEE7012809D800F05A
:104C9C009BF80021007CFFF7E7FA80F00100C0B21E
:104CAC00D2E709380128EED800F04EF8007CFFF767
:104CBC009BFAF2E71CE7032020E70320232838B5F2
:104CCC0004460D460AD8FF2908D0FFF7B9FF28B1D2
:104CDC0029462046BDE83840FFF726BA38BD38B51E
:104CEC0004460D46FFF728FAFF2810D0062804D8F2
:104CFC004D2323FA00F0C30709D42046FFF7A0FF89
:104D0C0028B129462046BDE83840FFF71DBA38BD0A
:104D1C007047000038B5044614252A46002100F0DF
:104D2C008DF825804025074925812846258200F0ED
:104D3C006FF804496060284600F06AF8E06020468D
:104D4C0038BD00BF04510B0030B50E4D2978BFF3B0
:104D5C005B8F11F0010487B011D12846FFF79FF942
:104D6C0068B101A8FFF7D6FF01AA21460648FFF754
:104D7C0019FE2846FFF798F9044800F04BF8024852
:104D8C0007B030BD28E703202CE703201D4D0B0096
:104D9C007047000038B50A4B036001230446436199
:104DAC000849202000F034F8202560600549A560F2
:104DBC00284600F02DF8C4E90305204638BD00BF95
:104DCC001800010004510B0030B50E4D2978BFF3CB
:104DDC005B8F11F0010487B011D12846FFF75FF902
:104DEC0068B16846FFF7D6FF6A4621460648FFF7CA
:104DFC0019FE2846FFF758F9044800F00BF8024852
:104E0C0007B030BD44E7032048E703209D4D0B005D
:104E1C00FFF741B9002301461A46184600F044B882
:104E2C000A44914200F1FF3300D1704710B511F8DC
:104E3C00014B03F8014F9142F9D110BD02440346D6
:104E4C00934200D1704703F8011BF9E738B5104BBA
:104E5C001D68AB6B0446B3B91820FFF7E9FA02469C
:104E6C00A86320B90B4B0C484221FFF7F1FA0B4910
:104E7C000B4BC0E900130B4B83600B238381002188
:104E8C000120C2E90401AB6B00221C615A6138BDE0
:104E9C0044E6032005510B001C510B000E33CDAB27
:104EAC0034126DE6ECDE05002DE9F843DFF8B8802E
:104EBC000646D8F800001F460D46914600F056F8FD
:104ECC00254B1C6834B9254C1C60254B13B11B6851
:104EDC00C4F8883063681F2B07DDD8F8000000F099
:104EEC0047F84FF0FF30BDE8F8834EB3D4F8880094
:104EFC0088B91C4B23B9D8F8000000F038F8F0E75B
:104F0C004FF48470FFF794FA0028F4D00023C0E922
:104F1C004033C4F88800636840F8239001229A401B
:104F2C0000EB8301D0F800311343C0F80031022E9E
:104F3C00C1F8807002BFD0F804311343C0F80431BB
:104F4C006368D8F800005A1C0233626044F823509E
:104F5C0000F00EF80020C6E7E8E703205CE703202A
:104F6C00000000003D440B00A8E60320704770478A
:104F7C00704700002D400B0069400B0091400B0066
:104F8C0095400B0000000000000000000000000035
:104F9C00DB440B00D1440B00C7440B00BD440B0099
:104FAC00B1440B00A5440B00294B0B00314B0B00FB
:104FBC0099440B0091440B0087440B007D440B007B
:104FCC00614B0B006170700025592D256D2D2564EA
:104FDC005425483A254D3A2553257A00617363745C
:104FEC00696D6500000000000000000055470B00D3
:104FFC0045470B0047470B00000000000000000075
:10500C003B480B00A3480B0079480B0041450B00B3
:10501C006B480B003D480B004D480B009D480B00A6
:10502C005D480B0035480B0000000000000000003C
:10503C0035490B00A1490B0079490B0041450B0088
:10504C0049490B0065490B0057490B0073490B008C
:10505C0037490B003B490B0000000000000000002A
:10506C00D9490B00234A0B00FB490B00DB490B0011
:10507C00034A0B000B4A0B00134A0B001B4A0B0094
:10508C000000000000000000CB4A0B00C14A0B00DE
:10509C00B74A0B006D4A0B00AB4A0B009F4A0B0042
:1050AC00294B0B00314B0B00934A0B008B4A0B0026
:1050BC00814A0B00774A0B00614B0B00000000008B
:1050CC0000000000E94A0B00F34A0B00FD4A0B00FC
:1050DC00074B0B00114B0B001D4B0B00294B0B000E
:1050EC00314B0B00394B0B00454B0B004D4B0B0060
:1050FC00574B0B00614B0B00005245454E54206D35
:10510C00616C6C6F632073756363656564656400C3
:10511C002F6D6E742F776F726B73706163652F7761
:10512C006F726B73706163652F4743432D31302D64
:10513C00706970656C696E652F6A656E6B696E73EC
:10514C002D4743432D31302D706970656C696E6548
:10515C002D34385F32303230313132345F313630C9
:10516C00363138303634312F7372632F6E65776C6D
:10517C0069622F6E65776C69622F6C6962632F733D
:10518C0074646C69622F72616E642E63000000009F
:10519C00ED400B00E5440B000D450B0031450B00B9
:1051AC00D5450B00E5450B0001460B00D54A0B001D
:0451BC00394C0B005F
:1051C000040000001400000003000000474E5500DA
:1051D000BD165A1A559CABE3DD00AF71B8FEB44B57
:0451E000A426691781
:1051E400E84F0B0048E60320000000000000000028
:1051F40000000000000000000000000000000000AB
:10520400000000000000000000000000000000009A
:10521400000000000000000000000000000000008A
:10522400000000000000000000000000000000007A
:10523400000000000000000000000000000000006A
:0C5244000000000000000000ECE7032068
:04525000000000005A
:10525A0000000102030405060708090A0B0C0D0EDB
:10526A000F101112131415161718191A1B1C1D1ECC
:04527A001F202800C9
:04527E007856341218
:04000003B000401CED
:00000001FF
