:02000002B0004C
:1040000000400B007A520B00000006000C00050275
:084010000401B41400000000DB
:044018007C4F0B00CE
:10401C00034613F8012B002AFBD1181A01387047FC
:10402C0009480A49884208B505D0094A824202D09B
:10403C00121A00F0F3FE0748074A0021121A00F08A
:10404C00FBFE014808BD00BF40E60320E0510B0019
:10405C00ACE60320ACE60320F0E7032070B5074E76
:10406C00074C00F035FBA41BA4080025AC4200D182
:10407C0070BD56F8043B98470135F7E798510B0093
:10408C00BC510B0000F013B808B500F014F8BDE8F3
:10409C00084000F0D5BA00F0C9B900F0CFB90078EB
:1040AC00B0FA80F04009704701230370704701217A
:1040BC00052000F001BE08B54FF47A7000F094FAB8
:1040CC000121052000F009FE4FF47A7000F08CFA03
:1040DC00BDE808400021052000F0FFBD10B5074BDE
:1040EC00074A9A600024C3E90044032000F00AF94F
:1040FC0021460120BDE8104000F014B9ACE60320C5
:10410C000000FFFF08B5024B1B689B68019308BDBC
:10411C006802030008B5024B1B68DB68019308BDFD
:10412C006802030008B5024B1B689B68019308BD2D
:10413C002C02030008B5024B1B68DB68019308BD19
:10414C002C02030008B5024B1B681B69019308BDC8
:10415C002C02030008B5024B1B685B68019308BD79
:10416C001802030008B5024B1B685B69019308BD7C
:10417C001802030008B5024B1B685B6C019308BD69
:10418C004802030008B5024B1B685B69019308BD2C
:10419C006402030008B5024B1B68DB68019308BD81
:1041AC003C02030008B5024B1B681B69019308BD58
:1041BC003C02030008B5024B1B685B69019308BD08
:1041CC003C02030008B5024B1B689B69019308BDB8
:1041DC003C02030008B5024B1B68DB69019308BD68
:1041EC003C02030008B5024B1B681B6A019308BD17
:1041FC003C02030008B5024B1B689B6A019308BD87
:10420C003C02030008B5024B1B681B6C019308BDF4
:10421C003C02030008B5024B1B681B6A019308BDE6
:10422C002802030008B5024B1B685B6A019308BDAA
:10423C002802030008B5024B1B689B6A019308BD5A
:10424C002802030008B5024B1B68DB6A019308BD0A
:10425C002802030008B5024B1B681B6B019308BDB9
:10426C002802030008B5024B1B685B6B019308BD69
:10427C002802030008B5024B1B681B6C019308BD98
:10428C002802030008B5024B1B68DB69019308BDCB
:10429C003002030008B5024B1B681B6A019308BD72
:1042AC003002030008B5024B1B681B68019308BD64
:1042BC004C02030008B5024B1B681B69019308BD37
:1042CC004C02030008B5024B1B685B69019308BDE7
:1042DC004C02030008B5024B1B689B69019308BD97
:1042EC004C02030008B5024B1B68DB69019308BD47
:1042FC004C02030008B5024B1B681B6A019308BDF6
:10430C004C02030008B5024B1B685B68019308BDA7
:10431C002002030008B5024B1B685B69019308BDC2
:10432C002002030008B5024B1B68DB6A019308BD31
:10433C002002030008B5034B1B68D3F888300193A7
:10434C0008BD00002002030008B5034B1B68D3F81E
:10435C009430019308BD00002002030008B5024B05
:10436C001B685B68019308BD4002030008B5024B53
:10437C001B689B68019308BD4002030008B5024B03
:10438C001B68DB68019308BD4002030008B5024BB3
:10439C001B681B69019308BD4002030008B5024B62
:1043AC001B685B69019308BD4002030008B5024B12
:1043BC001B689B69019308BD4002030008B5024BC2
:1043CC001B68DB69019308BD4002030008B5024B72
:1043DC001B681B6A019308BD4002030008B5024B21
:1043EC001B681B6B019308BD4002030008B5024B10
:1043FC001B685B6B019308BD4002030008B5024BC0
:10440C001B681B6C019308BD4002030008B5024BEE
:10441C001B685B6C019308BD4002030008B5024B9E
:10442C001B68DB6B019308BD4402030008B5024B0B
:10443C001B681B68019308BD1C02030008B5024BE6
:10444C001B685B68019308BD1C02030008B5024B96
:10445C001B681B6C019308BD1C02030008B5024BC2
:10446C001B685B6C019308BD1C02030000224068B2
:10447C001146FFF7ABBF002240681146FFF7B6BFED
:10448C0040680022FFF7AABF4068002281F00101BA
:10449C00FFF794BF002340681A461946FFF786BF02
:1044AC00002340681A461946FFF778BF002240687F
:1044BC001146FFF76BBF002240681146FFF756BF4D
:1044CC00406800220221FFF759BF002340681A46BA
:1044DC00FFF744BF024B03225A60024A1A6070472E
:1044EC00B8E60320984F0B0010B50446084621701F
:1044FC00FFF7C8FE00236360204610BD054B022267
:10450C001A60054B054A9A600020C3E90000FFF7CA
:10451C00F9BE00BFCCE60320C0E603200000FFFF7D
:10452C00024800230360FFF725BE00BFD0E603203E
:10453C00F8B506460D468F180024BD420CD03368E2
:10454C0015F8011B9B6830469847031E01DB1C4481
:10455C00F3E7002C08BF1C462046F8BD13B50446F3
:10456C00084659B10191FFF753FD23680199DB68A7
:10457C000246204602B0BDE81040184702B010BDFC
:10458C0003689B68184730B58BB00023012A8DF85F
:10459C00243098BF0A2209AC0D46B1FBF2F101FBA5
:1045AC00125303F0FF03092B94BF30333733DBB2C4
:1045BC00AA4204F8013DEFD92146FFF7CFFF0BB01B
:1045CC0030BD0000014B024A1A607047D4E603204C
:1045DC00CC4F0B00024B1A68024B1A60704700BF9D
:1045EC0040E60320D8E603200021FFF793BE00002D
:1045FC00014B00229A607047DCE60320014B1860E7
:10460C00704700BF44E6032008B50B4B43B100F0E4
:10461C0063F903681B699847002801DDAFF300803C
:10462C00064B43B100F08EFB03681B6998470028CA
:10463C0001DDAFF3008008BD0000000000000000A9
:10464C0008B5FFF7E1FFFFF78DFD014B186008BDC2
:10465C0040E703200548064A064908B5121A00F03F
:10466C00DDFB054B054A1A6008BD00BF00F40320B2
:10467C0004F403204C520B0000F403201E1C279A58
:10468C0007B5002300931A466FF07701FFF75CFE25
:10469C0003B05DF804FB000007B543880A2B08D073
:1046AC00502B0BD1094B1B684BB103B05DF804EBDD
:1046BC001847FFF7E5FF03B05DF804FB00230093F8
:1046CC001A466FF07701FFF73FFEF4E7F0E60320A0
:1046DC0010B512480021FFF7C1FE114B1A68114B9F
:1046EC009A42114B0CBF012200221A7001D0FFF725
:1046FC00B1FFFFF72FFD044600F0A6FB0B4B13B1E7
:10470C002046AFF3008000210848FFF787FEBDE884
:10471C00104007480021FFF70DBE00BF09460B00F3
:10472C0000F403201E1C279AECE603200000000076
:10473C00A5460B00704710B518210446FFF7ADFCD9
:10474C00204610BDF0B5037D062B8DB00E4600F152
:10475C0004074FF0000412D000F1080515F8011DF4
:10476C000A223046FFF70FFFAF42044419D0002C49
:10477C00F4D02E213046FFF703FF0444EEE72F233D
:10478C006A4639460A208DF80040FFF7FBFC684664
:10479C00FFF73EFC33680246DB68694630469847B3
:1047AC00044620460DB0F0BD10B5054B0446112251
:1047BC0040F8043B002100F03FFB204610BD00BF39
:1047CC00F44F0B000346074A10B543F8042B01F1D4
:1047DC00100251F8044B43F8044B9142F9D10A787A
:1047EC001A7010BDF44F0B0010B59DF8084044EA48
:1047FC00032343EA024242EA016104234160037548
:10480C0010BD000007B5064B0360CB7800938B7886
:10481C004A780978FFF7E8FF03B05DF804FB00BFA6
:10482C00F44F0B00417470477047704708B5002176
:10483C00007CFFF74FFD40EAE07008BD08B5012190
:10484C00007CFFF747FD40EAE07008BD08B5007C2E
:10485C00FFF738FD20EAE07008BD08B5007CFFF7D3
:10486C0029FD20EAE07008BD13B50446007C0191D7
:10487C00FFF728FD0028019901DC607C20B1207C29
:10488C00FFF730FD20EAE07002B010BD007CFFF7AE
:10489C0031BD10B514210446FFF7FFFB204610BDB7
:1048AC0010B54FF47A73044608460021C4E901138D
:1048BC00044B23600123207463741146FFF7F2FC50
:1048CC00204610BD08500B0010B5142204460021E0
:1048DC0000F0B2FA204610BD10B50F4C88B003A8FA
:1048EC00FFF7F2FF2178BFF35B8F11F001010FD1BD
:1048FC0020460191FFF7D3FB019948B103AA074861
:10490C00FFF7CEFF2046FFF7CFFB054800F080FAFB
:10491C00024808B010BD00BFF4E60320F8E60320FF
:10492C0035480B0070474174704708B5007CFFF7A1
:10493C0061FC20EAE07008BD08B5007CFFF732FC92
:10494C0020EAE07008BD08B5007CFFF73BFC40EAAC
:10495C00E07008BD08B5007CFFF72CFC40EAE07065
:10496C0008BD007CFFF736BC37B5457C04462DB13D
:10497C00207C03B0BDE83040FFF70CBC007C0191FB
:10498C00FFF738FC00280199F2DC284603B030BD53
:10499C0010B514210446FFF780FB204610BD000023
:1049AC0010B54FF47A730446084611460022C4E948
:1049BC000123044B2360012320746374FFF722FC52
:1049CC00204610BD38500B007047F8B5064615460A
:1049DC000C468F18BC4206D0336814F8011B9B6838
:1049EC0030469847F6E72846F8BD007C0022FFF7D2
:1049FC0011BC007C0021FFF715BC007C0021FFF7E7
:104A0C0019BC007C0021FFF71DBC007C0021FFF7C6
:104A1C0021BC10B514210446FFF73FFB204610BD06
:104A2C0038B5044615464FF47A730022C4E90123C5
:104A3C00094B2174084623602946FFF71BFCBF3045
:104A4C0008D16B69DB0705D56868FFF7F7FCE868E8
:104A5C00FFF7F4FC204638BD68500B00002240687C
:104A6C001146FFF793BC002240681146FFF7AEBC1D
:104A7C00002240681146FFF7B9BC40680022FFF7DE
:104A8C00ADBC4068002281F00101FFF797BC002308
:104A9C0040681A461946FFF789BC002340681A463D
:104AAC001946FFF77BBC002240681146FFF75EBC3D
:104ABC00406800220221FFF761BC002340681A46BF
:104ACC00FFF74CBC024B04225A60024A1A60704732
:104ADC000CE7032090500B00002340681A46FFF7A8
:104AEC003DBC406800220221FFF748BC0022406810
:104AFC001146FFF73BBC002240681146FFF746BC4D
:104B0C00002340681A461946FFF748BC002340684A
:104B1C001A461946FFF74ABC40680021FFF76EBCE5
:104B2C0040680021FFF772BC4068002281F001014F
:104B3C00FFF744BC40680022FFF750BC00224068DD
:104B4C001146FFF753BC002240681146FFF73EBCEC
:104B5C002DE9F04395B014460D460746FFF724FEA9
:104B6C0000211C220DA8009100F066F940230C9343
:104B7C0020466B460CAA0021FFF7CCFA044600280D
:104B8C004BD1024601216868FFF700FC02218046E8
:104B9C0022466868FFF7FAFB009E81462146002EEC
:104BAC003BD0002939D17368022B03D00A2B11D0CA
:104BBC00F669F4E7B8F1000FFAD0716906A8043170
:104BCC0007ADFFF71FFE0FCD3C1D0FC42B682370E4
:104BDC004146EDE7B9F1000FEAD07469102201A843
:104BEC0000F02AF906238DF8143001AD04F1080306
:104BFC001834186859682A4603C20833A34215466C
:104C0C00F7D101A906A807ADFFF7DCFD0FCD3C1DC0
:104C1C000FC42B6823704946CAE70098FFF772FA55
:104C2C00384615B0BDE8F083024B034A1A600022E7
:104C3C005A60704714E70320CC500B00232813B59F
:104C4C0002D9002002B010BDA0F10B03022B1AD820
:104C5C00174C2178BFF35B8F11F001010BD120466B
:104C6C000191FFF71CFA019928B11248FFF73CFC9F
:104C7C002046FFF719FA0F4B1878FFF70BFB0028AB
:104C8C00DFD10120DEE7012809D800F09BF80021D4
:104C9C00007CFFF7E7FA80F00100C0B2D2E70938D8
:104CAC000128EED800F04EF8007CFFF79BFAF2E7F3
:104CBC001CE7032020E70320232838B504460D46C3
:104CCC000AD8FF2908D0FFF7B9FF28B1294620469A
:104CDC00BDE83840FFF726BA38BD38B504460D4656
:104CEC00FFF728FAFF2810D0062804D84D2323FA02
:104CFC0000F0C30709D42046FFF7A0FF28B12946CE
:104D0C002046BDE83840FFF71DBA38BD704700009B
:104D1C0038B5044614252A46002100F08DF825806C
:104D2C004025074925812846258200F06FF8044963
:104D3C006060284600F06AF8E060204638BD00BF8D
:104D4C0000510B0030B50E4D2978BFF35B8F11F07D
:104D5C00010487B011D12846FFF7A1F968B101A869
:104D6C00FFF7D6FF01AA21460648FFF719FE284691
:104D7C00FFF79AF9044800F04BF8024807B030BD31
:104D8C0028E703202CE70320194D0B007047000087
:104D9C0038B50A4B036001230446436108492020BF
:104DAC0000F034F8202560600549A560284600F025
:104DBC002DF8C4E90305204638BD00BF18000100DA
:104DCC0000510B0030B50E4D2978BFF35B8F11F0FD
:104DDC00010487B011D12846FFF761F968B1684624
:104DEC00FFF7D6FF6A4621460648FFF719FE28460C
:104DFC00FFF75AF9044800F00BF8024807B030BD31
:104E0C0044E7032048E70320994D0B00FFF743B913
:104E1C00002301461A46184600F044B80A44914251
:104E2C0000F1FF3300D1704710B511F8014B03F8B6
:104E3C00014F9142F9D110BD02440346934200D177
:104E4C00704703F8011BF9E738B5104B1D68AB6BC5
:104E5C000446B3B91820FFF7E9FA0246A86320B953
:104E6C000B4B0C484221FFF7F1FA0B490B4BC0E9F5
:104E7C0000130B4B83600B23838100210120C2E9BB
:104E8C000401AB6B00221C615A6138BD44E603205F
:104E9C0001510B0018510B000E33CDAB34126DE6E3
:104EAC00ECDE05002DE9F843DFF8B8800646D8F8AB
:104EBC0000001F460D46914600F056F8254B1C6825
:104ECC0034B9254C1C60254B13B11B68C4F88830D1
:104EDC0063681F2B07DDD8F8000000F047F84FF08F
:104EEC00FF30BDE8F8834EB3D4F8880088B91C4B6A
:104EFC0023B9D8F8000000F038F8F0E74FF48470CC
:104F0C00FFF794FA0028F4D00023C0E94033C4F82A
:104F1C008800636840F8239001229A4000EB8301DB
:104F2C00D0F800311343C0F80031022EC1F8807064
:104F3C0002BFD0F804311343C0F804316368D8F8C9
:104F4C0000005A1C0233626044F8235000F00EF843
:104F5C000020C6E7E8E703205CE703200000000020
:104F6C0039440B00A8E603207047704770470000D7
:104F7C002D400B0069400B0091400B0095400B003D
:104F8C00000000000000000000000000D7440B00EF
:104F9C00CD440B00C3440B00B9440B00AD440B00D3
:104FAC00A1440B00254B0B002D4B0B0095440B0023
:104FBC008D440B0083440B0079440B005D4B0B00BC
:104FCC006170700025592D256D2D25645425483AA6
:104FDC00254D3A2553257A0061736374696D65001C
:104FEC00000000000000000051470B0041470B007F
:104FFC0043470B00000000000000000037480B0086
:10500C009F480B0075480B003D450B0067480B0093
:10501C0039480B0049480B0099480B0059480B00C4
:10502C0031480B00000000000000000031490B006B
:10503C009D490B0075490B003D450B0045490B0084
:10504C0061490B0053490B006F490B0033490B00AE
:10505C0037490B000000000000000000D5490B0090
:10506C001F4A0B00F7490B00D7490B00FF490B00F7
:10507C00074A0B000F4A0B00174A0B0000000000F8
:10508C0000000000C74A0B00BD4A0B00B34A0B00DE
:10509C00694A0B00A74A0B009B4A0B00254B0B00DF
:1050AC002D4B0B008F4A0B00874A0B007D4A0B00DF
:1050BC00734A0B005D4B0B00000000000000000069
:1050CC00E54A0B00EF4A0B00F94A0B00034B0B00AF
:1050DC000D4B0B00194B0B00254B0B002D4B0B00F4
:1050EC00354B0B00414B0B00494B0B00534B0B004A
:1050FC005D4B0B00005245454E54206D616C6C6F3E
:10510C006320737563636565646564002F6D6E74ED
:10511C002F776F726B73706163652F776F726B7320
:10512C00706163652F4743432D31302D7069706575
:10513C006C696E652F6A656E6B696E732D474343A0
:10514C002D31302D706970656C696E652D34385F4A
:10515C0032303230313132345F31363036313830F2
:10516C003634312F7372632F6E65776C69622F6ED4
:10517C0065776C69622F6C6962632F7374646C69F8
:10518C00622F72616E642E6300000000E9400B0018
:10519C00E1440B0009450B002D450B00D1450B00DC
:1051AC00E1450B00FD450B00D14A0B00354C0B00C3
:1051BC00040000001400000003000000474E5500DE
:1051CC002036BB37C73FD8C013164A4CC9A359B6B3
:0451DC00BA72E220A1
:1051E000E44F0B0048E60320000000000000000030
:1051F00000000000000000000000000000000000AF
:10520000000000000000000000000000000000009E
:10521000000000000000000000000000000000008E
:10522000000000000000000000000000000000007E
:10523000000000000000000000000000000000006E
:0C5240000000000000000000ECE703206C
:04524C00000000005E
:1052560000000102030405060708090A0B0C0D0EDF
:105266000F101112131415161718191A1B1C1D1ED0
:045276001F202800CD
:04527A00785634121C
:04000003B000401CED
:00000001FF
